{
  "_format": "hh-sol-artifact-1",
  "contractName": "GenericContract",
  "sourceName": "contracts/GenericContract.sol",
  "abi": [
    {
      "inputs": [
        {
          "internalType": "address",
          "name": "_tokenAddress",
          "type": "address"
        }
      ],
      "stateMutability": "nonpayable",
      "type": "constructor"
    },
    {
      "anonymous": false,
      "inputs": [
        {
          "indexed": false,
          "internalType": "address",
          "name": "arg",
          "type": "address"
        }
      ],
      "name": "CalledWithAddress",
      "type": "event"
    },
    {
      "anonymous": false,
      "inputs": [
        {
          "indexed": false,
          "internalType": "bytes",
          "name": "arg",
          "type": "bytes"
        }
      ],
      "name": "CalledWithBytes",
      "type": "event"
    },
    {
      "anonymous": false,
      "inputs": [
        {
          "indexed": false,
          "internalType": "bytes32",
          "name": "arg",
          "type": "bytes32"
        }
      ],
      "name": "CalledWithBytes32",
      "type": "event"
    },
    {
      "anonymous": false,
      "inputs": [
        {
          "indexed": false,
          "internalType": "string",
          "name": "arg",
          "type": "string"
        }
      ],
      "name": "CalledWithString",
      "type": "event"
    },
    {
      "anonymous": false,
      "inputs": [
        {
          "indexed": false,
          "internalType": "string[]",
          "name": "args",
          "type": "string[]"
        }
      ],
      "name": "CalledWithStringArray",
      "type": "event"
    },
    {
      "anonymous": false,
      "inputs": [
        {
          "indexed": false,
          "internalType": "uint256",
          "name": "arg",
          "type": "uint256"
        }
      ],
      "name": "CalledWithUint",
      "type": "event"
    },
    {
      "anonymous": false,
      "inputs": [
        {
          "indexed": false,
          "internalType": "address",
          "name": "to",
          "type": "address"
        },
        {
          "indexed": false,
          "internalType": "uint256",
          "name": "amount",
          "type": "uint256"
        }
      ],
      "name": "TokenTransferred",
      "type": "event"
    },
    {
      "inputs": [
        {
          "internalType": "address",
          "name": "arg",
          "type": "address"
        }
      ],
      "name": "callWithAddress",
      "outputs": [],
      "stateMutability": "nonpayable",
      "type": "function"
    },
    {
      "inputs": [
        {
          "internalType": "bytes",
          "name": "arg",
          "type": "bytes"
        }
      ],
      "name": "callWithBytes",
      "outputs": [],
      "stateMutability": "nonpayable",
      "type": "function"
    },
    {
      "inputs": [
        {
          "internalType": "bytes32",
          "name": "arg",
          "type": "bytes32"
        }
      ],
      "name": "callWithBytes32",
      "outputs": [],
      "stateMutability": "nonpayable",
      "type": "function"
    },
    {
      "inputs": [
        {
          "internalType": "string",
          "name": "arg",
          "type": "string"
        }
      ],
      "name": "callWithString",
      "outputs": [],
      "stateMutability": "nonpayable",
      "type": "function"
    },
    {
      "inputs": [
        {
          "internalType": "string[]",
          "name": "args",
          "type": "string[]"
        }
      ],
      "name": "callWithStringArray",
      "outputs": [],
      "stateMutability": "nonpayable",
      "type": "function"
    },
    {
      "inputs": [
        {
          "internalType": "uint256",
          "name": "arg",
          "type": "uint256"
        }
      ],
      "name": "callWithUint",
      "outputs": [],
      "stateMutability": "nonpayable",
      "type": "function"
    },
    {
      "inputs": [],
      "name": "token",
      "outputs": [
        {
          "internalType": "contract IERC20",
          "name": "",
          "type": "address"
        }
      ],
      "stateMutability": "view",
      "type": "function"
    },
    {
      "inputs": [
        {
          "internalType": "address",
          "name": "to",
          "type": "address"
        },
        {
          "internalType": "uint256",
          "name": "amount",
          "type": "uint256"
        }
      ],
      "name": "transferTokens",
      "outputs": [
        {
          "internalType": "bool",
          "name": "",
          "type": "bool"
        }
      ],
      "stateMutability": "nonpayable",
      "type": "function"
    }
  ],
  "bytecode": "0x608060405234801561001057600080fd5b50604051610f22380380610f22833981810160405281019061003291906100db565b806000806101000a81548173ffffffffffffffffffffffffffffffffffffffff021916908373ffffffffffffffffffffffffffffffffffffffff16021790555050610108565b600080fd5b600073ffffffffffffffffffffffffffffffffffffffff82169050919050565b60006100a88261007d565b9050919050565b6100b88161009d565b81146100c357600080fd5b50565b6000815190506100d5816100af565b92915050565b6000602082840312156100f1576100f0610078565b5b60006100ff848285016100c6565b91505092915050565b610e0b806101176000396000f3fe608060405234801561001057600080fd5b50600436106100885760003560e01c806368529be81161005b57806368529be8146100fd578063bec3fa1714610119578063cdb3682214610149578063fc0c546a1461016557610088565b806317d673471461008d5780632e5763f9146100a957806360ffef8f146100c55780636309387b146100e1575b600080fd5b6100a760048036038101906100a29190610666565b610183565b005b6100c360048036038101906100be91906106af565b6101bd565b005b6100df60048036038101906100da9190610756565b6101f7565b005b6100fb60048036038101906100f691906107b9565b610231565b005b6101176004803603810190610112919061081c565b61026b565b005b610133600480360381019061012e9190610849565b6102a5565b60405161014091906108a4565b60405180910390f35b610163600480360381019061015e9190610960565b6103c8565b005b61016d610402565b60405161017a9190610a08565b60405180910390f35b7faffc7b951b557409cc2f6b7c80ae4c2d7fc4097f72e86395617dc8f4fd441e3c816040516101b29190610b64565b60405180910390a150565b7f5bde0935b60d147a0a179edfeb16b42385d31e24b717a7be69cc8a45933d033f816040516101ec9190610bd0565b60405180910390a150565b7f304e72be1e4d4f80b78a4aeb1a6a20c8fbed555c86487420a7c3996c286fef1d816040516102269190610c01565b60405180910390a150565b7f0a25578b38366dfa28dbb1a3cf53e2b5765070f488ec59dd0e83aef5170ca5ff816040516102609190610c2b565b60405180910390a150565b7fee34504b1cb783bbfb42af0c9cec5ea571ced46c9c4e31efa043f4ca4901b9198160405161029a9190610c55565b60405180910390a150565b60008060009054906101000a900473ffffffffffffffffffffffffffffffffffffffff1673ffffffffffffffffffffffffffffffffffffffff1663a9059cbb84846040518363ffffffff1660e01b8152600401610303929190610c70565b6020604051808303816000875af1158015610322573d6000803e3d6000fd5b505050506040513d601f19601f820116820180604052508101906103469190610cc5565b610385576040517f08c379a000000000000000000000000000000000000000000000000000000000815260040161037c90610d3e565b60405180910390fd5b7fefed6b8d78a916dbd402a323824ae4454c9214b8f3d05fa85b3bb7f30dc25c0683836040516103b6929190610c70565b60405180910390a16001905092915050565b7fe3732f9fb27bf3d80fce887ddfb1128ea66df3e4b8c87b8d794359b7c9549a7d816040516103f79190610db3565b60405180910390a150565b60008054906101000a900473ffffffffffffffffffffffffffffffffffffffff1681565b6000604051905090565b600080fd5b600080fd5b600080fd5b6000601f19601f8301169050919050565b7f4e487b7100000000000000000000000000000000000000000000000000000000600052604160045260246000fd5b6104888261043f565b810181811067ffffffffffffffff821117156104a7576104a6610450565b5b80604052505050565b60006104ba610426565b90506104c6828261047f565b919050565b600067ffffffffffffffff8211156104e6576104e5610450565b5b602082029050602081019050919050565b600080fd5b600080fd5b600067ffffffffffffffff82111561051c5761051b610450565b5b6105258261043f565b9050602081019050919050565b82818337600083830152505050565b600061055461054f84610501565b6104b0565b9050828152602081018484840111156105705761056f6104fc565b5b61057b848285610532565b509392505050565b600082601f8301126105985761059761043a565b5b81356105a8848260208601610541565b91505092915050565b60006105c46105bf846104cb565b6104b0565b905080838252602082019050602084028301858111156105e7576105e66104f7565b5b835b8181101561062e57803567ffffffffffffffff81111561060c5761060b61043a565b5b8086016106198982610583565b855260208501945050506020810190506105e9565b5050509392505050565b600082601f83011261064d5761064c61043a565b5b813561065d8482602086016105b1565b91505092915050565b60006020828403121561067c5761067b610430565b5b600082013567ffffffffffffffff81111561069a57610699610435565b5b6106a684828501610638565b91505092915050565b6000602082840312156106c5576106c4610430565b5b600082013567ffffffffffffffff8111156106e3576106e2610435565b5b6106ef84828501610583565b91505092915050565b600073ffffffffffffffffffffffffffffffffffffffff82169050919050565b6000610723826106f8565b9050919050565b61073381610718565b811461073e57600080fd5b50565b6000813590506107508161072a565b92915050565b60006020828403121561076c5761076b610430565b5b600061077a84828501610741565b91505092915050565b6000819050919050565b61079681610783565b81146107a157600080fd5b50565b6000813590506107b38161078d565b92915050565b6000602082840312156107cf576107ce610430565b5b60006107dd848285016107a4565b91505092915050565b6000819050919050565b6107f9816107e6565b811461080457600080fd5b50565b600081359050610816816107f0565b92915050565b60006020828403121561083257610831610430565b5b600061084084828501610807565b91505092915050565b600080604083850312156108605761085f610430565b5b600061086e85828601610741565b925050602061087f85828601610807565b9150509250929050565b60008115159050919050565b61089e81610889565b82525050565b60006020820190506108b96000830184610895565b92915050565b600067ffffffffffffffff8211156108da576108d9610450565b5b6108e38261043f565b9050602081019050919050565b60006109036108fe846108bf565b6104b0565b90508281526020810184848401111561091f5761091e6104fc565b5b61092a848285610532565b509392505050565b600082601f8301126109475761094661043a565b5b81356109578482602086016108f0565b91505092915050565b60006020828403121561097657610975610430565b5b600082013567ffffffffffffffff81111561099457610993610435565b5b6109a084828501610932565b91505092915050565b6000819050919050565b60006109ce6109c96109c4846106f8565b6109a9565b6106f8565b9050919050565b60006109e0826109b3565b9050919050565b60006109f2826109d5565b9050919050565b610a02816109e7565b82525050565b6000602082019050610a1d60008301846109f9565b92915050565b600081519050919050565b600082825260208201905092915050565b6000819050602082019050919050565b600081519050919050565b600082825260208201905092915050565b60005b83811015610a89578082015181840152602081019050610a6e565b60008484015250505050565b6000610aa082610a4f565b610aaa8185610a5a565b9350610aba818560208601610a6b565b610ac38161043f565b840191505092915050565b6000610ada8383610a95565b905092915050565b6000602082019050919050565b6000610afa82610a23565b610b048185610a2e565b935083602082028501610b1685610a3f565b8060005b85811015610b525784840389528151610b338582610ace565b9450610b3e83610ae2565b925060208a01995050600181019050610b1a565b50829750879550505050505092915050565b60006020820190508181036000830152610b7e8184610aef565b905092915050565b600082825260208201905092915050565b6000610ba282610a4f565b610bac8185610b86565b9350610bbc818560208601610a6b565b610bc58161043f565b840191505092915050565b60006020820190508181036000830152610bea8184610b97565b905092915050565b610bfb81610718565b82525050565b6000602082019050610c166000830184610bf2565b92915050565b610c2581610783565b82525050565b6000602082019050610c406000830184610c1c565b92915050565b610c4f816107e6565b82525050565b6000602082019050610c6a6000830184610c46565b92915050565b6000604082019050610c856000830185610bf2565b610c926020830184610c46565b9392505050565b610ca281610889565b8114610cad57600080fd5b50565b600081519050610cbf81610c99565b92915050565b600060208284031215610cdb57610cda610430565b5b6000610ce984828501610cb0565b91505092915050565b7f546f6b656e207472616e73666572206661696c65640000000000000000000000600082015250565b6000610d28601583610b86565b9150610d3382610cf2565b602082019050919050565b60006020820190508181036000830152610d5781610d1b565b9050919050565b600081519050919050565b600082825260208201905092915050565b6000610d8582610d5e565b610d8f8185610d69565b9350610d9f818560208601610a6b565b610da88161043f565b840191505092915050565b60006020820190508181036000830152610dcd8184610d7a565b90509291505056fea2646970667358221220f4c64c7cd9e83200bbdf9041d8bffb40f0925874040203144c18694117dc788964736f6c63430008150033",
  "linkReferences": {},
  "deployedLinkReferences": {}
}